:100000000C9435000C945D000C945D000C945D0024
:100010000C945D000C945D000C945D000C945D00EC
:100020000C945D000C945D000C945D000C945D00DC
:100030000C945D000C945D000C945D000C945D00CC
:100040000C94B0010C945D000C947E010C9458014A
:100050000C945D000C945D000C945D000C945D00AC
:100060000C945D000C945D00F30111241FBECFEFD2
:10007000D8E0DEBFCDBF11E0A0E0B1E0EAE6F4E0F9
:1000800002C005900D92A831B107D9F721E0A8E18F
:10009000B1E001C01D92A73BB207E1F710E0C5E354
:1000A000D0E004C02197FE010E942D02C433D10785
:1000B000C9F70E9420020C9433020C940000FC014A
:1000C000538D448D252F30E0842F90E0821B930BBD
:1000D000541710F0CF96089501970895FC01918D63
:1000E000828D981761F0A28DAE0FBF2FB11D5D9666
:1000F0008C91928D9F5F9F73928F90E008958FEF08
:100100009FEF0895FC01918D828D981731F0828DBB
:10011000E80FF11D858D90E008958FEF9FEF089512
:10012000FC01918D228D892F90E0805C9F4F821B76
:1001300091098F7399270895FC01A48DA80FB92FF9
:10014000B11DA35ABF4F2C91848D90E001968F73FF
:100150009927848FA689B7892C93A089B1898C911E
:10016000837080648C93938D848D981306C002886D
:10017000F389E02D80818F7D80830895EF92FF9237
:100180000F931F93CF93DF93EC0181E0888F9B8DBA
:100190008C8D98131AC0E889F989808185FF15C074
:1001A0009FB7F894EE89FF896083E889F989808197
:1001B0008370806480839FBF81E090E0DF91CF9166
:1001C0001F910F91FF90EF900895F62E0B8D10E088
:1001D0000F5F1F4F0F731127E02E8C8D8E110CC0F7
:1001E0000FB607FCFACFE889F989808185FFF5CF42
:1001F000CE010E949C00F1CFEB8DEC0FFD2FF11D85
:10020000E35AFF4FF0829FB7F8940B8FEA89FB897E
:1002100080818062CFCFCF93DF93EC01888D8823DC
:10022000B9F0AA89BB89E889F9898C9185FD03C059
:10023000808186FD0DC00FB607FCF7CF8C9185FF3E
:10024000F2CF808185FFEDCFCE010E949C00E9CFE7
:10025000DF91CF910895AF92BF92CF92DF92EF924C
:10026000FF920F931F93CF93DF936C017B018B0160
:10027000040F151FEB015E01AE18BF08C017D107B0
:1002800059F06991D601ED91FC910190F081E02D3A
:10029000C6010995892B79F7C501DF91CF911F918F
:1002A0000F91FF90EF90DF90CF90BF90AF900895A7
:1002B0001F920F920FB60F9211242F933F934F93DB
:1002C0005F936F937F938F939F93AF93BF93EF93BE
:1002D000FF938AE191E00E949C00FF91EF91BF9112
:1002E000AF919F918F917F916F915F914F913F91CE
:1002F0002F910F900FBE0F901F9018951F920F9285
:100300000FB60F9211242F938F939F93EF93FF9328
:10031000E0912A01F0912B018081E0913001F09170
:10032000310182FD1BC09081809133018F5F8F73FB
:1003300020913401821741F0E0913301F0E0E65E54
:10034000FE4F958F80933301FF91EF919F918F9195
:100350002F910F900FBE0F901F9018958081F4CFB2
:100360001F920F920FB60F9211242F933F934F932A
:100370005F936F937F938F939F93AF93BF93EF930D
:10038000FF938091180190911901019690931901A2
:100390008093180182E886BD80911801909119011F
:1003A0008D37910579F48BB180588BB91092190172
:1003B0001092180145E050E062E171E08AE191E0BD
:1003C0000E942B01FF91EF91BF91AF919F918F916F
:1003D0007F916F915F914F913F912F910F900FBE41
:1003E0000F901F901895EAE1F1E01382128288EED7
:1003F00093E0A0E0B0E084839583A683B78384E094
:1004000091E09183808385EC90E09587848784ECEC
:1004100090E09787868780EC90E0918B808B81ECD1
:1004200090E0938B828B82EC90E0958B848B86ECB2
:1004300090E0978B868B118E128E138E148E0895FA
:10044000F894579A5F9882E886BD85B5856085BD2A
:1004500081E080936E007894FFCFEE0FFF1F059030
:0A046000F491E02D0994F894FFCF09
:10046A0000000000BE002B015F000B0190006E002F
:08047A008200726F646F7500CF
:00000001FF
