:100000000C9434000C9449000C9449000C94490061
:100010000C9449000C9449000C9449000C9449003C
:100020000C9449000C9449000C9449000C9449002C
:100030000C9449000C9449000C9449000C9449001C
:100040000C944B000C9449000C9449000C9449000A
:100050000C9449000C9449000C9449000C944900FC
:100060000C9449000C94490011241FBECFEFD8E036
:10007000DEBFCDBF11E0A0E0B1E0E8E6F1E002C0F4
:1000800005900D92A630B107D9F70E949D000C94FF
:10009000B2000C9400001F920F920FB60F92112421
:1000A0002F933F938F939F9380910401909105012B
:1000B0000196909305018093040182E886BD8091AA
:1000C000040190910501CC9739F55A9A8BB11BB870
:1000D00021E030E03093050120930401809102017A
:1000E00090910301019690930301809302010B9775
:1000F00099F45B9A8BB11BB83093030120930201F2
:10010000809100019091010101968730910569F07D
:1001100090930101809300019F918F913F912F91C6
:100120000F900FBE0F901F901895309301012093F0
:1001300000015C9A8BB11BB8EFCFF894529A539A96
:10014000549A559A5C9A8BB11BB85D9A8BB11BB8C7
:1001500082E886BD85B5856085BD81E080936E00AF
:080160007894FFCFF894FFCF63
:060168000100010001008E
:00000001FF
